{
  "_format": "hh-sol-artifact-1",
  "contractName": "RewardStore",
  "sourceName": "contracts/RewardStore.sol",
  "abi": [
    {
      "inputs": [],
      "stateMutability": "nonpayable",
      "type": "constructor"
    },
    {
      "anonymous": false,
      "inputs": [
        {
          "indexed": true,
          "internalType": "address",
          "name": "buyer",
          "type": "address"
        },
        {
          "indexed": false,
          "internalType": "uint256",
          "name": "amount",
          "type": "uint256"
        },
        {
          "indexed": false,
          "internalType": "string",
          "name": "productId",
          "type": "string"
        }
      ],
      "name": "ProductBought",
      "type": "event"
    },
    {
      "inputs": [
        {
          "internalType": "string",
          "name": "productId",
          "type": "string"
        }
      ],
      "name": "buyProduct",
      "outputs": [],
      "stateMutability": "payable",
      "type": "function"
    },
    {
      "inputs": [],
      "name": "getContractBalance",
      "outputs": [
        {
          "internalType": "uint256",
          "name": "",
          "type": "uint256"
        }
      ],
      "stateMutability": "view",
      "type": "function"
    },
    {
      "inputs": [],
      "name": "owner",
      "outputs": [
        {
          "internalType": "address",
          "name": "",
          "type": "address"
        }
      ],
      "stateMutability": "view",
      "type": "function"
    },
    {
      "inputs": [
        {
          "internalType": "uint256",
          "name": "amount",
          "type": "uint256"
        }
      ],
      "name": "withdraw",
      "outputs": [],
      "stateMutability": "nonpayable",
      "type": "function"
    }
  ],
  "bytecode": "0x608060405234801561001057600080fd5b50336000806101000a81548173ffffffffffffffffffffffffffffffffffffffff021916908373ffffffffffffffffffffffffffffffffffffffff16021790555061095d806100606000396000f3fe60806040526004361061003f5760003560e01c80632e1a7d4d14610044578063364e022f1461006d5780636f9fb98a146100895780638da5cb5b146100b4575b600080fd5b34801561005057600080fd5b5061006b600480360381019061006691906103f4565b6100df565b005b61008760048036038101906100829190610567565b61021a565b005b34801561009557600080fd5b5061009e61037e565b6040516100ab91906105bf565b60405180910390f35b3480156100c057600080fd5b506100c9610386565b6040516100d6919061061b565b60405180910390f35b60008054906101000a900473ffffffffffffffffffffffffffffffffffffffff1673ffffffffffffffffffffffffffffffffffffffff163373ffffffffffffffffffffffffffffffffffffffff161461016d576040517f08c379a0000000000000000000000000000000000000000000000000000000008152600401610164906106b9565b60405180910390fd5b478111156101b0576040517f08c379a00000000000000000000000000000000000000000000000000000000081526004016101a790610725565b60405180910390fd5b60008054906101000a900473ffffffffffffffffffffffffffffffffffffffff1673ffffffffffffffffffffffffffffffffffffffff166108fc829081150290604051600060405180830381858888f19350505050158015610216573d6000803e3d6000fd5b5050565b6000341161025d576040517f08c379a0000000000000000000000000000000000000000000000000000000008152600401610254906107b7565b60405180910390fd5b3373ffffffffffffffffffffffffffffffffffffffff167f466ea82d3bcfcef17835ff5063cdf8fede0ca534c20e7ec887f0be2417e64afc34836040516102a5929190610845565b60405180910390a260008060009054906101000a900473ffffffffffffffffffffffffffffffffffffffff1673ffffffffffffffffffffffffffffffffffffffff16346040516102f4906108a6565b60006040518083038185875af1925050503d8060008114610331576040519150601f19603f3d011682016040523d82523d6000602084013e610336565b606091505b505090508061037a576040517f08c379a000000000000000000000000000000000000000000000000000000000815260040161037190610907565b60405180910390fd5b5050565b600047905090565b60008054906101000a900473ffffffffffffffffffffffffffffffffffffffff1681565b6000604051905090565b600080fd5b600080fd5b6000819050919050565b6103d1816103be565b81146103dc57600080fd5b50565b6000813590506103ee816103c8565b92915050565b60006020828403121561040a576104096103b4565b5b6000610418848285016103df565b91505092915050565b600080fd5b600080fd5b6000601f19601f8301169050919050565b7f4e487b7100000000000000000000000000000000000000000000000000000000600052604160045260246000fd5b6104748261042b565b810181811067ffffffffffffffff821117156104935761049261043c565b5b80604052505050565b60006104a66103aa565b90506104b2828261046b565b919050565b600067ffffffffffffffff8211156104d2576104d161043c565b5b6104db8261042b565b9050602081019050919050565b82818337600083830152505050565b600061050a610505846104b7565b61049c565b90508281526020810184848401111561052657610525610426565b5b6105318482856104e8565b509392505050565b600082601f83011261054e5761054d610421565b5b813561055e8482602086016104f7565b91505092915050565b60006020828403121561057d5761057c6103b4565b5b600082013567ffffffffffffffff81111561059b5761059a6103b9565b5b6105a784828501610539565b91505092915050565b6105b9816103be565b82525050565b60006020820190506105d460008301846105b0565b92915050565b600073ffffffffffffffffffffffffffffffffffffffff82169050919050565b6000610605826105da565b9050919050565b610615816105fa565b82525050565b6000602082019050610630600083018461060c565b92915050565b600082825260208201905092915050565b7f4f6e6c7920746865206f776e65722063616e20706572666f726d20746869732060008201527f616374696f6e0000000000000000000000000000000000000000000000000000602082015250565b60006106a3602683610636565b91506106ae82610647565b604082019050919050565b600060208201905081810360008301526106d281610696565b9050919050565b7f496e73756666696369656e742062616c616e6365000000000000000000000000600082015250565b600061070f601483610636565b915061071a826106d9565b602082019050919050565b6000602082019050818103600083015261073e81610702565b9050919050565b7f5061796d656e7420616d6f756e74206d7573742062652067726561746572207460008201527f68616e2030000000000000000000000000000000000000000000000000000000602082015250565b60006107a1602583610636565b91506107ac82610745565b604082019050919050565b600060208201905081810360008301526107d081610794565b9050919050565b600081519050919050565b60005b838110156108005780820151818401526020810190506107e5565b60008484015250505050565b6000610817826107d7565b6108218185610636565b93506108318185602086016107e2565b61083a8161042b565b840191505092915050565b600060408201905061085a60008301856105b0565b818103602083015261086c818461080c565b90509392505050565b600081905092915050565b50565b6000610890600083610875565b915061089b82610880565b600082019050919050565b60006108b182610883565b9150819050919050565b7f5472616e7366657220746f206f776e6572206661696c65640000000000000000600082015250565b60006108f1601883610636565b91506108fc826108bb565b602082019050919050565b60006020820190508181036000830152610920816108e4565b905091905056fea2646970667358221220bd6e7e977a142366a1cb20ee8339ff997f3d84fc665ccf7d5194bfa02668e81664736f6c63430008130033",
  "linkReferences": {},
  "deployedLinkReferences": {}
}